{
	"data": {
		"bytecode": {
			"linkReferences": {},
			"object": "6080604052348015600e575f80fd5b50426001819055506040518061010001604052805f60ff168152602001600360ff1681526020015f60ff168152602001600960ff168152602001600260ff1681526020015f60ff1681526020015f60ff168152602001600360ff168152506002906008607a929190607f565b5060d8565b826008810192821560b0579160200282015b8281111560af578251829060ff169055916020019190600101906091565b5b50905060bb919060bf565b5090565b5b8082111560d4575f815f90555060010160c0565b5090565b610912806100e55f395ff3fe608060405234801561000f575f80fd5b506004361061003f575f3560e01c8063193040031461004357806368f7b9dc146100735780639954c11d146100a3575b5f80fd5b61005d60048036038101906100589190610504565b6100c2565b60405161006a919061059f565b60405180910390f35b61008d60048036038101906100889190610504565b61023b565b60405161009a9190610664565b60405180910390f35b6100ab610366565b6040516100b992919061068d565b60405180910390f35b60605f805490506001836100d691906106e2565b10610116576040517f08c379a000000000000000000000000000000000000000000000000000000000815260040161010d9061075f565b60405180910390fd5b5f5b60088110156101c357600281600881106101355761013461077d565b5b01545f60018561014591906106e2565b815481106101565761015561077d565b5b905f5260205f20906008020182600881106101745761017361077d565b5b0154146101b6576040517f08c379a00000000000000000000000000000000000000000000000000000000081526004016101ad906107f4565b60405180910390fd5b8080600101915050610118565b505f5b60088110156101fd576101d76103fa565b600282600881106101eb576101ea61077d565b5b018190555080806001019150506101c6565b506040518060400160405280600e81526020017f57696e6e657220372043726f72650000000000000000000000000000000000008152509050919050565b61024361044f565b5f8054905060018361025591906106e2565b10610295576040517f08c379a000000000000000000000000000000000000000000000000000000000815260040161028c9061075f565b60405180910390fd5b5f5b60088110156102f7576102a86103fa565b5f6001856102b691906106e2565b815481106102c7576102c661077d565b5b905f5260205f20906008020182600881106102e5576102e461077d565b5b01819055508080600101915050610297565b505f60018361030691906106e2565b815481106103175761031661077d565b5b905f5260205f20906008020160088060200260405190810160405280929190826008801561035a576020028201915b815481526020019060010190808311610346575b50505050509050919050565b5f61036f61044f565b61037761044f565b5f5b60088110156103b35761038a6103fa565b82826008811061039d5761039c61077d565b5b6020020181815250508080600101915050610379565b505f81908060018154018082558091505060019003905f5260205f2090600802015f909190919091509060086103ea929190610472565b505f805490508192509250509091565b5f6001805f82825461040c9190610812565b92505081905550600a6001546040516020016104289190610865565b604051602081830303815290604052805190602001205f1c61044a91906108ac565b905090565b604051806101000160405280600890602082028036833780820191505090505090565b82600881019282156104a1579160200282015b828111156104a0578251825591602001919060010190610485565b5b5090506104ae91906104b2565b5090565b5b808211156104c9575f815f9055506001016104b3565b5090565b5f80fd5b5f819050919050565b6104e3816104d1565b81146104ed575f80fd5b50565b5f813590506104fe816104da565b92915050565b5f60208284031215610519576105186104cd565b5b5f610526848285016104f0565b91505092915050565b5f81519050919050565b5f82825260208201905092915050565b8281835e5f83830152505050565b5f601f19601f8301169050919050565b5f6105718261052f565b61057b8185610539565b935061058b818560208601610549565b61059481610557565b840191505092915050565b5f6020820190508181035f8301526105b78184610567565b905092915050565b5f60089050919050565b5f81905092915050565b5f819050919050565b6105e5816104d1565b82525050565b5f6105f683836105dc565b60208301905092915050565b5f602082019050919050565b610617816105bf565b61062181846105c9565b925061062c826105d3565b805f5b8381101561065c57815161064387826105eb565b965061064e83610602565b92505060018101905061062f565b505050505050565b5f610100820190506106785f83018461060e565b92915050565b610687816104d1565b82525050565b5f610120820190506106a15f83018561067e565b6106ae602083018461060e565b9392505050565b7f4e487b71000000000000000000000000000000000000000000000000000000005f52601160045260245ffd5b5f6106ec826104d1565b91506106f7836104d1565b925082820390508181111561070f5761070e6106b5565b5b92915050565b7f496e76616c6964204964000000000000000000000000000000000000000000005f82015250565b5f610749600a83610539565b915061075482610715565b602082019050919050565b5f6020820190508181035f8301526107768161073d565b9050919050565b7f4e487b71000000000000000000000000000000000000000000000000000000005f52603260045260245ffd5b7f426174746572204c75636b206e6578742074696d6500000000000000000000005f82015250565b5f6107de601583610539565b91506107e9826107aa565b602082019050919050565b5f6020820190508181035f83015261080b816107d2565b9050919050565b5f61081c826104d1565b9150610827836104d1565b925082820190508082111561083f5761083e6106b5565b5b92915050565b5f819050919050565b61085f61085a826104d1565b610845565b82525050565b5f610870828461084e565b60208201915081905092915050565b7f4e487b71000000000000000000000000000000000000000000000000000000005f52601260045260245ffd5b5f6108b6826104d1565b91506108c1836104d1565b9250826108d1576108d061087f565b5b82820690509291505056fea2646970667358221220498008b50855c656983eb1c1ca68e7400a833c3056191b161e6232d4b5373f8564736f6c634300081a0033",
			"opcodes": "PUSH1 0x80 PUSH1 0x40 MSTORE CALLVALUE DUP1 ISZERO PUSH1 0xE JUMPI PUSH0 DUP1 REVERT JUMPDEST POP TIMESTAMP PUSH1 0x1 DUP2 SWAP1 SSTORE POP PUSH1 0x40 MLOAD DUP1 PUSH2 0x100 ADD PUSH1 0x40 MSTORE DUP1 PUSH0 PUSH1 0xFF AND DUP2 MSTORE PUSH1 0x20 ADD PUSH1 0x3 PUSH1 0xFF AND DUP2 MSTORE PUSH1 0x20 ADD PUSH0 PUSH1 0xFF AND DUP2 MSTORE PUSH1 0x20 ADD PUSH1 0x9 PUSH1 0xFF AND DUP2 MSTORE PUSH1 0x20 ADD PUSH1 0x2 PUSH1 0xFF AND DUP2 MSTORE PUSH1 0x20 ADD PUSH0 PUSH1 0xFF AND DUP2 MSTORE PUSH1 0x20 ADD PUSH0 PUSH1 0xFF AND DUP2 MSTORE PUSH1 0x20 ADD PUSH1 0x3 PUSH1 0xFF AND DUP2 MSTORE POP PUSH1 0x2 SWAP1 PUSH1 0x8 PUSH1 0x7A SWAP3 SWAP2 SWAP1 PUSH1 0x7F JUMP JUMPDEST POP PUSH1 0xD8 JUMP JUMPDEST DUP3 PUSH1 0x8 DUP2 ADD SWAP3 DUP3 ISZERO PUSH1 0xB0 JUMPI SWAP2 PUSH1 0x20 MUL DUP3 ADD JUMPDEST DUP3 DUP2 GT ISZERO PUSH1 0xAF JUMPI DUP3 MLOAD DUP3 SWAP1 PUSH1 0xFF AND SWAP1 SSTORE SWAP2 PUSH1 0x20 ADD SWAP2 SWAP1 PUSH1 0x1 ADD SWAP1 PUSH1 0x91 JUMP JUMPDEST JUMPDEST POP SWAP1 POP PUSH1 0xBB SWAP2 SWAP1 PUSH1 0xBF JUMP JUMPDEST POP SWAP1 JUMP JUMPDEST JUMPDEST DUP1 DUP3 GT ISZERO PUSH1 0xD4 JUMPI PUSH0 DUP2 PUSH0 SWAP1 SSTORE POP PUSH1 0x1 ADD PUSH1 0xC0 JUMP JUMPDEST POP SWAP1 JUMP JUMPDEST PUSH2 0x912 DUP1 PUSH2 0xE5 PUSH0 CODECOPY PUSH0 RETURN INVALID PUSH1 0x80 PUSH1 0x40 MSTORE CALLVALUE DUP1 ISZERO PUSH2 0xF JUMPI PUSH0 DUP1 REVERT JUMPDEST POP PUSH1 0x4 CALLDATASIZE LT PUSH2 0x3F JUMPI PUSH0 CALLDATALOAD PUSH1 0xE0 SHR DUP1 PUSH4 0x19304003 EQ PUSH2 0x43 JUMPI DUP1 PUSH4 0x68F7B9DC EQ PUSH2 0x73 JUMPI DUP1 PUSH4 0x9954C11D EQ PUSH2 0xA3 JUMPI JUMPDEST PUSH0 DUP1 REVERT JUMPDEST PUSH2 0x5D PUSH1 0x4 DUP1 CALLDATASIZE SUB DUP2 ADD SWAP1 PUSH2 0x58 SWAP2 SWAP1 PUSH2 0x504 JUMP JUMPDEST PUSH2 0xC2 JUMP JUMPDEST PUSH1 0x40 MLOAD PUSH2 0x6A SWAP2 SWAP1 PUSH2 0x59F JUMP JUMPDEST PUSH1 0x40 MLOAD DUP1 SWAP2 SUB SWAP1 RETURN JUMPDEST PUSH2 0x8D PUSH1 0x4 DUP1 CALLDATASIZE SUB DUP2 ADD SWAP1 PUSH2 0x88 SWAP2 SWAP1 PUSH2 0x504 JUMP JUMPDEST PUSH2 0x23B JUMP JUMPDEST PUSH1 0x40 MLOAD PUSH2 0x9A SWAP2 SWAP1 PUSH2 0x664 JUMP JUMPDEST PUSH1 0x40 MLOAD DUP1 SWAP2 SUB SWAP1 RETURN JUMPDEST PUSH2 0xAB PUSH2 0x366 JUMP JUMPDEST PUSH1 0x40 MLOAD PUSH2 0xB9 SWAP3 SWAP2 SWAP1 PUSH2 0x68D JUMP JUMPDEST PUSH1 0x40 MLOAD DUP1 SWAP2 SUB SWAP1 RETURN JUMPDEST PUSH1 0x60 PUSH0 DUP1 SLOAD SWAP1 POP PUSH1 0x1 DUP4 PUSH2 0xD6 SWAP2 SWAP1 PUSH2 0x6E2 JUMP JUMPDEST LT PUSH2 0x116 JUMPI PUSH1 0x40 MLOAD PUSH32 0x8C379A000000000000000000000000000000000000000000000000000000000 DUP2 MSTORE PUSH1 0x4 ADD PUSH2 0x10D SWAP1 PUSH2 0x75F JUMP JUMPDEST PUSH1 0x40 MLOAD DUP1 SWAP2 SUB SWAP1 REVERT JUMPDEST PUSH0 JUMPDEST PUSH1 0x8 DUP2 LT ISZERO PUSH2 0x1C3 JUMPI PUSH1 0x2 DUP2 PUSH1 0x8 DUP2 LT PUSH2 0x135 JUMPI PUSH2 0x134 PUSH2 0x77D JUMP JUMPDEST JUMPDEST ADD SLOAD PUSH0 PUSH1 0x1 DUP6 PUSH2 0x145 SWAP2 SWAP1 PUSH2 0x6E2 JUMP JUMPDEST DUP2 SLOAD DUP2 LT PUSH2 0x156 JUMPI PUSH2 0x155 PUSH2 0x77D JUMP JUMPDEST JUMPDEST SWAP1 PUSH0 MSTORE PUSH1 0x20 PUSH0 KECCAK256 SWAP1 PUSH1 0x8 MUL ADD DUP3 PUSH1 0x8 DUP2 LT PUSH2 0x174 JUMPI PUSH2 0x173 PUSH2 0x77D JUMP JUMPDEST JUMPDEST ADD SLOAD EQ PUSH2 0x1B6 JUMPI PUSH1 0x40 MLOAD PUSH32 0x8C379A000000000000000000000000000000000000000000000000000000000 DUP2 MSTORE PUSH1 0x4 ADD PUSH2 0x1AD SWAP1 PUSH2 0x7F4 JUMP JUMPDEST PUSH1 0x40 MLOAD DUP1 SWAP2 SUB SWAP1 REVERT JUMPDEST DUP1 DUP1 PUSH1 0x1 ADD SWAP2 POP POP PUSH2 0x118 JUMP JUMPDEST POP PUSH0 JUMPDEST PUSH1 0x8 DUP2 LT ISZERO PUSH2 0x1FD JUMPI PUSH2 0x1D7 PUSH2 0x3FA JUMP JUMPDEST PUSH1 0x2 DUP3 PUSH1 0x8 DUP2 LT PUSH2 0x1EB JUMPI PUSH2 0x1EA PUSH2 0x77D JUMP JUMPDEST JUMPDEST ADD DUP2 SWAP1 SSTORE POP DUP1 DUP1 PUSH1 0x1 ADD SWAP2 POP POP PUSH2 0x1C6 JUMP JUMPDEST POP PUSH1 0x40 MLOAD DUP1 PUSH1 0x40 ADD PUSH1 0x40 MSTORE DUP1 PUSH1 0xE DUP2 MSTORE PUSH1 0x20 ADD PUSH32 0x57696E6E657220372043726F7265000000000000000000000000000000000000 DUP2 MSTORE POP SWAP1 POP SWAP2 SWAP1 POP JUMP JUMPDEST PUSH2 0x243 PUSH2 0x44F JUMP JUMPDEST PUSH0 DUP1 SLOAD SWAP1 POP PUSH1 0x1 DUP4 PUSH2 0x255 SWAP2 SWAP1 PUSH2 0x6E2 JUMP JUMPDEST LT PUSH2 0x295 JUMPI PUSH1 0x40 MLOAD PUSH32 0x8C379A000000000000000000000000000000000000000000000000000000000 DUP2 MSTORE PUSH1 0x4 ADD PUSH2 0x28C SWAP1 PUSH2 0x75F JUMP JUMPDEST PUSH1 0x40 MLOAD DUP1 SWAP2 SUB SWAP1 REVERT JUMPDEST PUSH0 JUMPDEST PUSH1 0x8 DUP2 LT ISZERO PUSH2 0x2F7 JUMPI PUSH2 0x2A8 PUSH2 0x3FA JUMP JUMPDEST PUSH0 PUSH1 0x1 DUP6 PUSH2 0x2B6 SWAP2 SWAP1 PUSH2 0x6E2 JUMP JUMPDEST DUP2 SLOAD DUP2 LT PUSH2 0x2C7 JUMPI PUSH2 0x2C6 PUSH2 0x77D JUMP JUMPDEST JUMPDEST SWAP1 PUSH0 MSTORE PUSH1 0x20 PUSH0 KECCAK256 SWAP1 PUSH1 0x8 MUL ADD DUP3 PUSH1 0x8 DUP2 LT PUSH2 0x2E5 JUMPI PUSH2 0x2E4 PUSH2 0x77D JUMP JUMPDEST JUMPDEST ADD DUP2 SWAP1 SSTORE POP DUP1 DUP1 PUSH1 0x1 ADD SWAP2 POP POP PUSH2 0x297 JUMP JUMPDEST POP PUSH0 PUSH1 0x1 DUP4 PUSH2 0x306 SWAP2 SWAP1 PUSH2 0x6E2 JUMP JUMPDEST DUP2 SLOAD DUP2 LT PUSH2 0x317 JUMPI PUSH2 0x316 PUSH2 0x77D JUMP JUMPDEST JUMPDEST SWAP1 PUSH0 MSTORE PUSH1 0x20 PUSH0 KECCAK256 SWAP1 PUSH1 0x8 MUL ADD PUSH1 0x8 DUP1 PUSH1 0x20 MUL PUSH1 0x40 MLOAD SWAP1 DUP2 ADD PUSH1 0x40 MSTORE DUP1 SWAP3 SWAP2 SWAP1 DUP3 PUSH1 0x8 DUP1 ISZERO PUSH2 0x35A JUMPI PUSH1 0x20 MUL DUP3 ADD SWAP2 JUMPDEST DUP2 SLOAD DUP2 MSTORE PUSH1 0x20 ADD SWAP1 PUSH1 0x1 ADD SWAP1 DUP1 DUP4 GT PUSH2 0x346 JUMPI JUMPDEST POP POP POP POP POP SWAP1 POP SWAP2 SWAP1 POP JUMP JUMPDEST PUSH0 PUSH2 0x36F PUSH2 0x44F JUMP JUMPDEST PUSH2 0x377 PUSH2 0x44F JUMP JUMPDEST PUSH0 JUMPDEST PUSH1 0x8 DUP2 LT ISZERO PUSH2 0x3B3 JUMPI PUSH2 0x38A PUSH2 0x3FA JUMP JUMPDEST DUP3 DUP3 PUSH1 0x8 DUP2 LT PUSH2 0x39D JUMPI PUSH2 0x39C PUSH2 0x77D JUMP JUMPDEST JUMPDEST PUSH1 0x20 MUL ADD DUP2 DUP2 MSTORE POP POP DUP1 DUP1 PUSH1 0x1 ADD SWAP2 POP POP PUSH2 0x379 JUMP JUMPDEST POP PUSH0 DUP2 SWAP1 DUP1 PUSH1 0x1 DUP2 SLOAD ADD DUP1 DUP3 SSTORE DUP1 SWAP2 POP POP PUSH1 0x1 SWAP1 SUB SWAP1 PUSH0 MSTORE PUSH1 0x20 PUSH0 KECCAK256 SWAP1 PUSH1 0x8 MUL ADD PUSH0 SWAP1 SWAP2 SWAP1 SWAP2 SWAP1 SWAP2 POP SWAP1 PUSH1 0x8 PUSH2 0x3EA SWAP3 SWAP2 SWAP1 PUSH2 0x472 JUMP JUMPDEST POP PUSH0 DUP1 SLOAD SWAP1 POP DUP2 SWAP3 POP SWAP3 POP POP SWAP1 SWAP2 JUMP JUMPDEST PUSH0 PUSH1 0x1 DUP1 PUSH0 DUP3 DUP3 SLOAD PUSH2 0x40C SWAP2 SWAP1 PUSH2 0x812 JUMP JUMPDEST SWAP3 POP POP DUP2 SWAP1 SSTORE POP PUSH1 0xA PUSH1 0x1 SLOAD PUSH1 0x40 MLOAD PUSH1 0x20 ADD PUSH2 0x428 SWAP2 SWAP1 PUSH2 0x865 JUMP JUMPDEST PUSH1 0x40 MLOAD PUSH1 0x20 DUP2 DUP4 SUB SUB DUP2 MSTORE SWAP1 PUSH1 0x40 MSTORE DUP1 MLOAD SWAP1 PUSH1 0x20 ADD KECCAK256 PUSH0 SHR PUSH2 0x44A SWAP2 SWAP1 PUSH2 0x8AC JUMP JUMPDEST SWAP1 POP SWAP1 JUMP JUMPDEST PUSH1 0x40 MLOAD DUP1 PUSH2 0x100 ADD PUSH1 0x40 MSTORE DUP1 PUSH1 0x8 SWAP1 PUSH1 0x20 DUP3 MUL DUP1 CALLDATASIZE DUP4 CALLDATACOPY DUP1 DUP3 ADD SWAP2 POP POP SWAP1 POP POP SWAP1 JUMP JUMPDEST DUP3 PUSH1 0x8 DUP2 ADD SWAP3 DUP3 ISZERO PUSH2 0x4A1 JUMPI SWAP2 PUSH1 0x20 MUL DUP3 ADD JUMPDEST DUP3 DUP2 GT ISZERO PUSH2 0x4A0 JUMPI DUP3 MLOAD DUP3 SSTORE SWAP2 PUSH1 0x20 ADD SWAP2 SWAP1 PUSH1 0x1 ADD SWAP1 PUSH2 0x485 JUMP JUMPDEST JUMPDEST POP SWAP1 POP PUSH2 0x4AE SWAP2 SWAP1 PUSH2 0x4B2 JUMP JUMPDEST POP SWAP1 JUMP JUMPDEST JUMPDEST DUP1 DUP3 GT ISZERO PUSH2 0x4C9 JUMPI PUSH0 DUP2 PUSH0 SWAP1 SSTORE POP PUSH1 0x1 ADD PUSH2 0x4B3 JUMP JUMPDEST POP SWAP1 JUMP JUMPDEST PUSH0 DUP1 REVERT JUMPDEST PUSH0 DUP2 SWAP1 POP SWAP2 SWAP1 POP JUMP JUMPDEST PUSH2 0x4E3 DUP2 PUSH2 0x4D1 JUMP JUMPDEST DUP2 EQ PUSH2 0x4ED JUMPI PUSH0 DUP1 REVERT JUMPDEST POP JUMP JUMPDEST PUSH0 DUP2 CALLDATALOAD SWAP1 POP PUSH2 0x4FE DUP2 PUSH2 0x4DA JUMP JUMPDEST SWAP3 SWAP2 POP POP JUMP JUMPDEST PUSH0 PUSH1 0x20 DUP3 DUP5 SUB SLT ISZERO PUSH2 0x519 JUMPI PUSH2 0x518 PUSH2 0x4CD JUMP JUMPDEST JUMPDEST PUSH0 PUSH2 0x526 DUP5 DUP3 DUP6 ADD PUSH2 0x4F0 JUMP JUMPDEST SWAP2 POP POP SWAP3 SWAP2 POP POP JUMP JUMPDEST PUSH0 DUP2 MLOAD SWAP1 POP SWAP2 SWAP1 POP JUMP JUMPDEST PUSH0 DUP3 DUP3 MSTORE PUSH1 0x20 DUP3 ADD SWAP1 POP SWAP3 SWAP2 POP POP JUMP JUMPDEST DUP3 DUP2 DUP4 MCOPY PUSH0 DUP4 DUP4 ADD MSTORE POP POP POP JUMP JUMPDEST PUSH0 PUSH1 0x1F NOT PUSH1 0x1F DUP4 ADD AND SWAP1 POP SWAP2 SWAP1 POP JUMP JUMPDEST PUSH0 PUSH2 0x571 DUP3 PUSH2 0x52F JUMP JUMPDEST PUSH2 0x57B DUP2 DUP6 PUSH2 0x539 JUMP JUMPDEST SWAP4 POP PUSH2 0x58B DUP2 DUP6 PUSH1 0x20 DUP7 ADD PUSH2 0x549 JUMP JUMPDEST PUSH2 0x594 DUP2 PUSH2 0x557 JUMP JUMPDEST DUP5 ADD SWAP2 POP POP SWAP3 SWAP2 POP POP JUMP JUMPDEST PUSH0 PUSH1 0x20 DUP3 ADD SWAP1 POP DUP2 DUP2 SUB PUSH0 DUP4 ADD MSTORE PUSH2 0x5B7 DUP2 DUP5 PUSH2 0x567 JUMP JUMPDEST SWAP1 POP SWAP3 SWAP2 POP POP JUMP JUMPDEST PUSH0 PUSH1 0x8 SWAP1 POP SWAP2 SWAP1 POP JUMP JUMPDEST PUSH0 DUP2 SWAP1 POP SWAP3 SWAP2 POP POP JUMP JUMPDEST PUSH0 DUP2 SWAP1 POP SWAP2 SWAP1 POP JUMP JUMPDEST PUSH2 0x5E5 DUP2 PUSH2 0x4D1 JUMP JUMPDEST DUP3 MSTORE POP POP JUMP JUMPDEST PUSH0 PUSH2 0x5F6 DUP4 DUP4 PUSH2 0x5DC JUMP JUMPDEST PUSH1 0x20 DUP4 ADD SWAP1 POP SWAP3 SWAP2 POP POP JUMP JUMPDEST PUSH0 PUSH1 0x20 DUP3 ADD SWAP1 POP SWAP2 SWAP1 POP JUMP JUMPDEST PUSH2 0x617 DUP2 PUSH2 0x5BF JUMP JUMPDEST PUSH2 0x621 DUP2 DUP5 PUSH2 0x5C9 JUMP JUMPDEST SWAP3 POP PUSH2 0x62C DUP3 PUSH2 0x5D3 JUMP JUMPDEST DUP1 PUSH0 JUMPDEST DUP4 DUP2 LT ISZERO PUSH2 0x65C JUMPI DUP2 MLOAD PUSH2 0x643 DUP8 DUP3 PUSH2 0x5EB JUMP JUMPDEST SWAP7 POP PUSH2 0x64E DUP4 PUSH2 0x602 JUMP JUMPDEST SWAP3 POP POP PUSH1 0x1 DUP2 ADD SWAP1 POP PUSH2 0x62F JUMP JUMPDEST POP POP POP POP POP POP JUMP JUMPDEST PUSH0 PUSH2 0x100 DUP3 ADD SWAP1 POP PUSH2 0x678 PUSH0 DUP4 ADD DUP5 PUSH2 0x60E JUMP JUMPDEST SWAP3 SWAP2 POP POP JUMP JUMPDEST PUSH2 0x687 DUP2 PUSH2 0x4D1 JUMP JUMPDEST DUP3 MSTORE POP POP JUMP JUMPDEST PUSH0 PUSH2 0x120 DUP3 ADD SWAP1 POP PUSH2 0x6A1 PUSH0 DUP4 ADD DUP6 PUSH2 0x67E JUMP JUMPDEST PUSH2 0x6AE PUSH1 0x20 DUP4 ADD DUP5 PUSH2 0x60E JUMP JUMPDEST SWAP4 SWAP3 POP POP POP JUMP JUMPDEST PUSH32 0x4E487B7100000000000000000000000000000000000000000000000000000000 PUSH0 MSTORE PUSH1 0x11 PUSH1 0x4 MSTORE PUSH1 0x24 PUSH0 REVERT JUMPDEST PUSH0 PUSH2 0x6EC DUP3 PUSH2 0x4D1 JUMP JUMPDEST SWAP2 POP PUSH2 0x6F7 DUP4 PUSH2 0x4D1 JUMP JUMPDEST SWAP3 POP DUP3 DUP3 SUB SWAP1 POP DUP2 DUP2 GT ISZERO PUSH2 0x70F JUMPI PUSH2 0x70E PUSH2 0x6B5 JUMP JUMPDEST JUMPDEST SWAP3 SWAP2 POP POP JUMP JUMPDEST PUSH32 0x496E76616C696420496400000000000000000000000000000000000000000000 PUSH0 DUP3 ADD MSTORE POP JUMP JUMPDEST PUSH0 PUSH2 0x749 PUSH1 0xA DUP4 PUSH2 0x539 JUMP JUMPDEST SWAP2 POP PUSH2 0x754 DUP3 PUSH2 0x715 JUMP JUMPDEST PUSH1 0x20 DUP3 ADD SWAP1 POP SWAP2 SWAP1 POP JUMP JUMPDEST PUSH0 PUSH1 0x20 DUP3 ADD SWAP1 POP DUP2 DUP2 SUB PUSH0 DUP4 ADD MSTORE PUSH2 0x776 DUP2 PUSH2 0x73D JUMP JUMPDEST SWAP1 POP SWAP2 SWAP1 POP JUMP JUMPDEST PUSH32 0x4E487B7100000000000000000000000000000000000000000000000000000000 PUSH0 MSTORE PUSH1 0x32 PUSH1 0x4 MSTORE PUSH1 0x24 PUSH0 REVERT JUMPDEST PUSH32 0x426174746572204C75636B206E6578742074696D650000000000000000000000 PUSH0 DUP3 ADD MSTORE POP JUMP JUMPDEST PUSH0 PUSH2 0x7DE PUSH1 0x15 DUP4 PUSH2 0x539 JUMP JUMPDEST SWAP2 POP PUSH2 0x7E9 DUP3 PUSH2 0x7AA JUMP JUMPDEST PUSH1 0x20 DUP3 ADD SWAP1 POP SWAP2 SWAP1 POP JUMP JUMPDEST PUSH0 PUSH1 0x20 DUP3 ADD SWAP1 POP DUP2 DUP2 SUB PUSH0 DUP4 ADD MSTORE PUSH2 0x80B DUP2 PUSH2 0x7D2 JUMP JUMPDEST SWAP1 POP SWAP2 SWAP1 POP JUMP JUMPDEST PUSH0 PUSH2 0x81C DUP3 PUSH2 0x4D1 JUMP JUMPDEST SWAP2 POP PUSH2 0x827 DUP4 PUSH2 0x4D1 JUMP JUMPDEST SWAP3 POP DUP3 DUP3 ADD SWAP1 POP DUP1 DUP3 GT ISZERO PUSH2 0x83F JUMPI PUSH2 0x83E PUSH2 0x6B5 JUMP JUMPDEST JUMPDEST SWAP3 SWAP2 POP POP JUMP JUMPDEST PUSH0 DUP2 SWAP1 POP SWAP2 SWAP1 POP JUMP JUMPDEST PUSH2 0x85F PUSH2 0x85A DUP3 PUSH2 0x4D1 JUMP JUMPDEST PUSH2 0x845 JUMP JUMPDEST DUP3 MSTORE POP POP JUMP JUMPDEST PUSH0 PUSH2 0x870 DUP3 DUP5 PUSH2 0x84E JUMP JUMPDEST PUSH1 0x20 DUP3 ADD SWAP2 POP DUP2 SWAP1 POP SWAP3 SWAP2 POP POP JUMP JUMPDEST PUSH32 0x4E487B7100000000000000000000000000000000000000000000000000000000 PUSH0 MSTORE PUSH1 0x12 PUSH1 0x4 MSTORE PUSH1 0x24 PUSH0 REVERT JUMPDEST PUSH0 PUSH2 0x8B6 DUP3 PUSH2 0x4D1 JUMP JUMPDEST SWAP2 POP PUSH2 0x8C1 DUP4 PUSH2 0x4D1 JUMP JUMPDEST SWAP3 POP DUP3 PUSH2 0x8D1 JUMPI PUSH2 0x8D0 PUSH2 0x87F JUMP JUMPDEST JUMPDEST DUP3 DUP3 MOD SWAP1 POP SWAP3 SWAP2 POP POP JUMP INVALID LOG2 PUSH5 0x6970667358 0x22 SLT KECCAK256 BLOBHASH DUP1 ADDMOD 0xB5 ADDMOD SSTORE 0xC6 JUMP SWAP9 RETURNDATACOPY 0xB1 0xC1 0xCA PUSH9 0xE7400A833C3056191B AND 0x1E PUSH3 0x32D4B5 CALLDATACOPY EXTCODEHASH DUP6 PUSH5 0x736F6C6343 STOP ADDMOD BYTE STOP CALLER "
		},
		"gasEstimates": {
			"creation": {
				"codeDepositCost": "464400",
				"executionCost": "infinite",
				"totalCost": "infinite"
			},
			"external": {
				"CheckLottey(uint256)": "infinite",
				"DrawLottry(uint256)": "infinite",
				"NewCustomer()": "infinite"
			},
			"internal": {
				"randomBetween0And9()": "infinite"
			}
		},
		"methodIdentifiers": {
			"CheckLottey(uint256)": "19304003",
			"DrawLottry(uint256)": "68f7b9dc",
			"NewCustomer()": "9954c11d"
		}
	},
	"abi": [
		{
			"inputs": [],
			"stateMutability": "nonpayable",
			"type": "constructor"
		},
		{
			"inputs": [
				{
					"internalType": "uint256",
					"name": "id",
					"type": "uint256"
				}
			],
			"name": "CheckLottey",
			"outputs": [
				{
					"internalType": "string",
					"name": "",
					"type": "string"
				}
			],
			"stateMutability": "nonpayable",
			"type": "function"
		},
		{
			"inputs": [
				{
					"internalType": "uint256",
					"name": "id",
					"type": "uint256"
				}
			],
			"name": "DrawLottry",
			"outputs": [
				{
					"internalType": "uint256[8]",
					"name": "",
					"type": "uint256[8]"
				}
			],
			"stateMutability": "nonpayable",
			"type": "function"
		},
		{
			"inputs": [],
			"name": "NewCustomer",
			"outputs": [
				{
					"internalType": "uint256",
					"name": "",
					"type": "uint256"
				},
				{
					"internalType": "uint256[8]",
					"name": "",
					"type": "uint256[8]"
				}
			],
			"stateMutability": "nonpayable",
			"type": "function"
		}
	]
}